:0400000054EF1BF0AE
:020006001200E6
:1000080000C020F001C01FF002C01EF003C01DF0A8
:1000180004C01CF005C01BF006C01AF007C019F098
:1000280008C018F009C017F00AC016F00BC015F088
:10003800D9CF2BF0DACF2CF0E1CF29F0E2CF2AF09C
:10004800E9CF27F0EACF28F0F3CF25F0F4CF26F058
:10005800F5CF24F0F8CF21F0F7CF22F0F6CF23F038
:10006800C2EC19F024C0F5FF21C0F8FF22C0F7FF49
:1000780023C0F6FF25C0F3FF26C0F4FF20C000F020
:100088001FC001F01EC002F01DC003F01CC004F028
:100098001BC005F01AC006F019C007F018C008F018
:1000A80017C009F016C00AF015C00BF027C0E9FF09
:1000B80028C0EAFF29C0E1FF2AC0E2FF2BC0D9FF10
:0600C8002CC0DAFF11005C
:0E00CE00030158B102D08B9E01D08B8E120020
:0E00DC00030158B102D08B9C01D08B8C120016
:0E00EA00030158B102D08A9801D08A88120012
:0E00F800030158B102D08A9A01D08A8A120000
:0E010600030158B102D08C9801D08C881200F1
:0E011400030158B102D08C9001D08C801200F3
:0E012200030158B102D08C9201D08C821200E1
:0E013000030158B102D08C9A01D08C8A1200C3
:0E013E00030158B102D08C9C01D08C8C1200B1
:0E014C00030158B102D08A9601D08A861200B3
:0E015A00ADB202D00000FCD758C3AEFF1200B9
:100168008EC304F08FC305F08CC302F08DC303F077
:1001780090C300F00301900700520FE004C0E9FFAC
:1001880005C0EAFF02C0E1FF03C0E2FFEECFE6FFD1
:10019800024A032A044A052AEBD78CC300F08DC310
:0401A80001F0120050
:0E01AC00030158B102D08A9401D08A84120057
:0E01BA00030158B102D0899401D0898412004B
:1001C800C7B409D01F0EC514016E0150000A03E11F
:0A01D800010E006E01D0006A120053
:1001E200F250026EF29E0500FF6A0150FE6E005050
:0801F200FD6E02BEF28E120048
:1001FA0073B409D01F0E7114016E0150000A03E195
:0A020A00010E006E01D0006A120020
:10021400030183AF07D04D0E876F020E886F020E65
:10022400896F05D0C90E876F010E886F896B0A0E1E
:100234008725D96E000E8821DA6EDE508925036E7B
:10024400046A000E042203C000F004C001F000366A
:1002540000900136003600900136000E0024856FB0
:100264000D0E0120866F050E8725E96E000E88218C
:10027400EA6EEECF01F0EECF02F0000E006E0250F7
:10028400005C03E101500101C55D06E2C5C18AF3CA
:10029400000E03018B6F0BD00301050E8725E96E59
:1002A400000E8821EA6EEECF8AF3EECF8BF3C00EF8
:1002B4008C6F0D0E8D6F010E8725E96E000E88215F
:1002C400EA6EEECF8EF3EECF8FF38AC390F34ADF5C
:1002D400020E8525E16E000E8621E26EC00E006ED0
:1002E4000D0E016E00C0E6FF01C0E6FF010E85257C
:1002F400E16E000E8621E26E8AC3E6FF030E8B15C3
:10030400036E87C3E9FF88C3EAFFEECF02F0060E4F
:10031400016E02C000F0015004E000360090FF0FAF
:10032400FBD70350001285C3E1FF86C3E2FF84516B
:060334000010E66E12004D
:10033A000301886B896B83C301F084C302F085C310
:10034A0003F0000E046E000E006E041808E100505F
:10035A00031805E10050021802E10150000A65E0A5
:10036A0083C305F084C306F085C307F005C0F6FF12
:10037A0006C0F7FF07C0F8FF0900F5CF01F00150EA
:10038A00000A07E0892B010E0526000E0622072225
:10039A00EDD789C300F000360090020E002600C097
:1003AA0089F383C305F084C306F085C307F0885137
:1003BA008625E16E000E8721E26E00C0E6FF882BDB
:1003CA0088518625E16E000E8721E26E030EE66EE5
:1003DA00882B05C0F6FF06C0F7FF07C0F8FF090023
:1003EA00F5CF01F00150000A20E088518625E16E20
:1003FA00000E8721E26E05C0F6FF06C0F7FF07C0B0
:10040A00F8FF0900F5CF00F000C0E6FF882B010EC7
:10041A000526000E0622072288518625E16E000E67
:0C042A008721E26EE66A882BD4D712000E
:10043600016A026A03018951025C02E18851015C8A
:1004460017E201508625E16E02508721E26E0150C7
:100456008325F66E02508421F76E000E8521F86E14
:100466000900F5CF00F000C0E6FF014A022AE2D7F4
:02047600120072
:0A047800000E81BA010E006E1200A2
:0A048200000E81B8010E006E12009A
:0A048C00000E80B4010E006E120095
:0A049600000E83BC010E006E120080
:0A04A000000E83BA010E006E120078
:0A04AA00000E82BE010E006E12006B
:0A04B400000E9EBA010E006E120049
:1004BE00AFCF01F0ACA202D0AC98AC8801C000F076
:0204CE0012001A
:0A04D000000E82BC010E006E120047
:0A04DA00000E81B6010E006E120044
:0A04E400000E81B4010E006E12003C
:1004EE0048C054F349C055F34AC056F34BC057F3B6
:1004FE000301526B536B5351120802E152518E0895
:10050E0008E374DE005201E004D00301524B532B7A
:10051E00F2D70301120E535D02E18F0E525D03E31B
:10052E007B0E006E24D0718071A020D048504910EF
:10053E004A104B101AE054515511561157110EE135
:10054E001CC1E1FF1DC1E2FF050EE66E1AC100F0EF
:10055E001BC101F03FDE010E006E09D0010E03013A
:10056E00545F000E555B565B575BDED7006A120078
:0A057E00000E83B0010E006E1200A3
:040588007184120068
:10058C0048C052F349C053F34AC054F34BC055F31F
:10059C00718271A21FD0485049104A104B1019E0BB
:1005AC00030152515311541155110CE11CC1E1FFBF
:1005BC001DC1E2FF060EE66E1AC100F01BC101F070
:1005CC000ADE08D0010E0301525F000E535B545B30
:0605DC00555BDFD71200A1
:1005E200A49E52C375FF48C053F349C054F34AC096
:1005F20055F34BC056F373A421D0485049104A100A
:100602004B101BE0030153515411551156110EE1C9
:100612001CC1E1FF1DC1E2FF040EE66E1AC100F02B
:100622001BC101F0DDDD010E006E3AD0010E0301A7
:10063200535F000E545B555B565BDDD748C053F3E6
:1006420049C054F34AC055F34BC056F3A4BE21D05F
:10065200485049104A104B101BE0030153515411EA
:10066200551156110EE11CC1E1FF1DC1E2FF040E3E
:10067200E66E1AC100F01BC101F0B2DD010E006E80
:100682000FD0010E0301535F000E545B555B565BA6
:10069200DDD771BC02D0006A03D07184020E006EF5
:0206A200120044
:1006A40075D0DA0E006E380E016E000E026E00C0B8
:1006B40083F301C084F302C085F31E0E0301866F29
:1006C400010E876F00C0F6FF01C0F7FF02C0F8FFFC
:1006D4000900F5CF88F3000E896FABDE1E0E006EA5
:1006E400010E016E67D0B10E836F380E846F000E59
:1006F400856F1E0E866F010E876F1DDE1E0E006E47
:10070400010E016E57D0CD0E836F380E846F000E2C
:10071400856F1E0E866F010E876F0DDE1E0E006E36
:10072400010E016E47D0C20E836F380E846F000E27
:10073400856F1E0E866F010E876FFDDD1E0E006E27
:10074400010E016E37D0740E836F380E846F000E65
:10075400856F1E0E866F010E876FEDDD1E0E006E17
:10076400010E016E27D05A0E836F380E846F000E6F
:10077400856F1E0E866F010E876FDDDD1E0E006E07
:10078400010E016E17D0006A016A14D00301825170
:10079400000A87E08251010AA6E08251020AB3E00E
:1007A4008251030AC0E08251040ACDE08251050A55
:0607B400DAE0E9D71200B3
:1007BA00C00E0101CA6F0D0ECB6F080ECC6F000E72
:1007CA00CD6F080ECE6F000ECF6FC96B0301836B1E
:0807DA008C0E846F1ADD120081
:1007E200D0C052F3D1C053F3D2C054F3D3C055F3A7
:1007F200C582C5A220D00001D051D111D211D3118E
:1008020019E0030152515311541155110CE1BFC1AA
:10081200E1FFC0C1E2FF060EE66EBDC100F0BEC13F
:1008220001F0DEDC08D0010E0301525F000E535BC3
:08083200545B555BDED7120098
:10083A00D0C054F3D1C055F3D2C056F3D3C057F346
:10084A009E96C5869EB620D00001D051D111D211F4
:10085A00D31119E0030154515511561157110CE1E6
:10086A00BFC1E1FFC0C1E2FF030EE66EBDC100F0E9
:10087A00BEC101F0B1DC08D0010E0301545F000EC5
:10088A00555B565B575BDED70301C9CF53F3525111
:10089A00000A02E1C58A01D0C59A9E96C588D0C0D1
:1008AA0054F3D1C055F3D2C056F3D3C057F39EB612
:1008BA0020D00001D051D111D211D31119E0030176
:1008CA0054515511561157110CE1BFC1E1FFC0C176
:1008DA00E2FF030EE66EBDC100F0BEC101F07CDC92
:1008EA0008D0010E0301545F000E555B565B575B3F
:0808FA00DED753C300F0120029
:0A090200000E83B8010E006E120013
:0A090C00000E83B2010E006E12000F
:1009160048C054F349C055F34AC056F34BC057F389
:10092600A49E7186A4BE1FD0485049104A104B1091
:1009360019E0030154515511561157110CE11CC110
:10094600E1FF1DC1E2FF030EE66E1AC100F01BC1F6
:1009560001F044DC08D0010E0301545F000E555B24
:10096600565B575BDFD7030175CF53F35251000A2D
:1009760002E1718A01D0719AA49E718848C054F32D
:1009860049C055F34AC056F34BC057F3A4BE1FD017
:10099600485049104A104B1019E0030154515511A3
:1009A600561157110CE11CC1E1FF1DC1E2FF030EF8
:1009B600E66E1AC100F01BC101F010DC08D0010E72
:1009C6000301545F000E555B565B575BDFD753C37D
:0409D60000F012001B
:1009DA009E9652C3C9FFD0C053F3D1C054F3D2C0BC
:1009EA0055F3D3C056F3C7A423D00001D051D11177
:1009FA00D211D3111CE00301535154115511561150
:100A0A000FE1BFC1E1FFC0C1E2FF040EE66EBDC146
:100A1A0000F0BEC101F0F1EC00F0010E006E3CD016
:100A2A00010E0301535F000E545B555B565BDBD727
:100A3A00D0C053F3D1C054F3D2C055F3D3C056F348
:100A4A009EB623D00001D051D111D211D3111CE08E
:100A5A00030153515411551156110FE1BFC1E1FF62
:100A6A00C0C1E2FF040EE66EBDC100F0BEC101F0D6
:100A7A00F1EC00F0010E006E0FD0010E0301535F7E
:100A8A00000E545B555B565BDBD7C5BC02D0006ACF
:0A0A9A0003D0C584020E006E1200A6
:040AA400C5841200F3
:0A0AA800000EADB2010E006E120048
:100AB200D0C054F3D1C055F3D2C056F3D3C057F3CC
:100AC2000301526B536B5351120802E152518E08CB
:100AD20009E3E4EC00F0005201E004D00301524BC0
:100AE200532BF1D70301120E535D02E18F0E525DBB
:100AF20003E37B0E006E27D0C580C5A023D0000182
:100B0200D051D111D211D3111CE00301545155110E
:100B1200561157110FE1BFC1E1FFC0C1E2FF050E3F
:100B2200E66EBDC100F0BEC101F0F1EC00F0010EB5
:100B3200006E09D0010E0301545F000E555B565B37
:080B4200575BDBD7006A1200CB
:100B4A000B6A0A6A096A00500402F4CF09F0F3CF6B
:100B5A0008F001500502F4CF0BF0F3CF0AF0005071
:100B6A000502F3500926F4500A22E86A0B220150C2
:100B7A000402F3500926F4500A22E86A0B2208C03C
:100B8A0000F009C001F00AC002F00BC003F0120025
:100B9A0002014E6B4F6B506B516B526B536B010ED4
:100BAA004D6F800E0301836F840E846F0AEC01F08F
:040BBA00FFDD120049
:100BBE00C90E056E010E066E010E0524E16E000EC5
:100BCE000620E26E79C3E6FF7AC3E6FF030E052424
:100BDE00E16E000E0620E26E080E0524E96E000E90
:100BEE000620EA6EEECFE6FFEECFE6FF050E0524F9
:100BFE00E16E000E0620E26E080E0524E96E000E70
:100C0E000620EA6EEECFE6FFEECFE6FF030E010101
:100C1E00C36F05C0E1FF06C0E2FF010EE66E0A0ECD
:100C2E000524E96E000E0620EA6EEECF03F003C037
:100C3E0000F0000E016E0036009001360036009076
:100C4E000136000E00260D0E012200C007F001C075
:100C5E0008F0020E0024E16E000E0120E26EC00EBE
:100C6E00006E0D0E016E00C0E6FF01C0E6FF010E24
:100C7E000724E16E000E0820E26E080E0524E96ED0
:100C8E00000E0620EA6EEECFE6FF080E0524E96E92
:100C9E00000E0620EA6EEECF03F0EECF04F004C095
:100CAE0000F0016A030E0014036E05C0E9FF06C0D2
:100CBE00EAFFEECF02F0060E016E02C000F0015008
:100CCE0004E000360090FF0FFBD70350001207C060
:0E0CDE00E1FF08C0E2FF880E0010E66E120073
:100CEC004D0E006E020E016E010E0024E16E000E20
:100CFC000120E26E79C3E6FF7AC3E6FF030E0024FF
:100D0C00E16E000E0120E26E7BC3E6FF7CC3E6FFC2
:100D1C00050E0024E16E000E0120E26E7BC3E6FF9F
:100D2C007CC3E6FF00C0E1FF01C0E2FF010EE66EEE
:080D3C00020E0101C36F120059
:100D440062D09F0E006E380E016E000E026E00C05F
:100D540083F301C084F302C085F31E0E0301866F82
:100D6400010E876F00C0F6FF01C0F7FF02C0F8FF55
:100D74000900F5CF88F3000E896F1BEC02F01E0EFC
:100D8400006E010E016E4AD0170E006E380E016E11
:100D9400000E026E00C083F301C084F302C085F329
:100DA4001E0E866F010E876F020E0024F66E000E73
:100DB4000120F76E000E0220F86E0900F5CF04F052
:100DC400030E0024F66E000E0120F76E000E0220C2
:100DD400F86E0900F5CF03F003C001F0006A045077
:100DE4000024886F000E0120896F1BEC02F01E0E98
:100DF400006E010E016E12D07AC382F351DC0ED064
:100E0400006A016A0BD003017951010A9AE0795111
:0E0E1400020ABAE07951030AEFE0F2D71200A9
:080E2200040E0101C36F120070
:100E2A000F0E030179157F6F806B816B79AF06D046
:100E3A004D0E7D6F020E7E6F808305D0C90E7D6FC9
:100E4A00010E7E6F80850B0E006E000E016E7FC351
:100E5A0004F0000E056E74DE7D5100267E510122DB
:100E6A0000C07DF301C07EF3070E0024E16E000E80
:100E7A000120E26E7AC3E6FF7DC3E1FF7EC3E2FF93
:100E8A00E66A080E7D25E16E000E7E21E26E7BC3C6
:100E9A00E6FF7CC3E6FF80877A51010AD8A48089DD
:100EAA00260E016E0F0E026E7F510126D8B0022A5D
:100EBA0001C0E9FF02C0EAFF8051EE10006E01C0D6
:0C0ECA00E1FF02C0E2FF00C0E6FF1200E2
:100ED60003D0010E4D6E04D003017951050AF9E0E5
:020EE6001200F8
:100EE8000301506B516B49C34EF34AC34FF348C3D8
:100EF80000F000360090008003C1E1FF04C1E2FF6A
:100F080000C0E6FF01C100F002C101F0F1EC00F001
:100F1800005003015013000E5113010E4B5F000ED9
:100F28004C5B4B514C1116E007C1E1FF08C1E2FFD1
:100F3800010EE66E05C100F006C101F0F1EC00F00B
:100F48004EC3E1FF4FC3E2FF00C0E6FF03014E4B73
:100F58004F2BE3D707C1E1FF08C1E2FFE66A05C1ED
:100F680000F006C101F0F1EC00F04EC3E1FF4FC301
:100F7800E2FF00C0E6FF03014D51000A06E111C17E
:100F880000F012C101F0F1EC00F003014D51010A2B
:100F980006E109C100F00AC101F0F1EC00F050C30C
:080FA80000F051C301F012003A
:100FB00074C3E9FF75C3EAFFEECF00F0600E0014C2
:100FC0000301786F71D0010E7425766F000E7521C4
:100FD000776F24D0010E0001CF6FE00E0301796F0F
:100FE000020E7A6FECDD30D0E00E0301796F020E55
:100FF0007A6F070E7B6F000E7C6F78DE25D0020EB5
:1010000003017425E96E000E7521EA6E030EEE14DD
:1010100001019E6F06DF18D0C0DD4DD076C3E9FF19
:1010200077C3EAFFEE50200AD5E076C3E9FF77C325
:10103000EAFFEE50210AD8E076C3E9FF77C3EAFF62
:10104000EE50220ADCE0E8D736D00301010E742509
:10105000766F000E7521776F16D00301CE0E796F73
:10106000000E7A6F010E7B6F000E7C6F3FDE19D091
:10107000020E03017425E96E000E7521EA6EEECFB3
:10108000CEF0CFDE0ED076C3E9FF77C3EAFFEE5095
:101090000A0AE3E076C3E9FF77C3EAFFEE500B0AE2
:1010A000E7E009D07ADD07D07851200A8CE078514A
:0810B000000ACBE0F7D71200A3
:1010B80074C34EF275C34FF276C350F277C351F240
:1010C80076C352F277C353F2020E0101C36F1200C6
:1010D8000301486B496B0DC100F00EC101F0F1EC42
:1010E80000F000C048F3000E0301496F48C300F048
:0610F80049C301F01200E3
:1010FE000301506B516B49C34EF34AC34FF348C3C0
:10110E0000F00036009003C1E1FF04C1E2FF00C011
:10111E00E6FF01C100F002C101F0F1EC00F0005059
:10112E0003015013000E51134BC300F04CC301F0DA
:10113E00010E4B5F000E4C5B0050011018E003C116
:10114E00E1FF04C1E2FF4EC3E9FF4FC3EAFFEECF5A
:10115E00E6FF01C100F002C101F0F1EC00F0005019
:10116E0003015013000E51134E4B4F2BDDD74D5133
:10117E00000A06E111C100F012C101F0F1EC00F01D
:10118E0003014D51010A06E10DC100F00EC101F03F
:0E119E00F1EC00F050C300F051C301F012005C
:1011AC00020E0301796F74C37AF3000E7B6F7C6BB4
:1011BC007D6BC2DD00C077F301C078F3020E002412
:1011CC00E96E000E0120EA6EEECF05F0030E00244E
:1011DC00E96E000E0120EA6EEECF03F0000E046EF5
:1011EC0003C001F0006A05500024756F000E012049
:1011FC00766F010E7725E96E000E7821EA6EEE50BF
:10120C00050A2FE1020E7725E96E000E7821EA6EB1
:10121C00EECF79F3030E7725E96E000E7821EA6E96
:10122C00EECF06F0040E7725E96E000E7821EA6EFB
:10123C00EECF05F0050E7725E96E000E7821EA6EEB
:10124C00EECF03F0000E046E03C001F0006A0550EF
:10125C0000247B6F000E01207C6F030E06147A6F46
:10126C00DEDD77C3D9FF78C3DAFFDE50755D006E23
:10127C00000E7659016E00C075F301C076F3005074
:10128C0001100AE077C3E9FF78C3EAFFEECF00F064
:10129C0000507727000E782375517611AAE1100EB5
:0E12AC000101C16F050E0301796F0FDE120004
:1012BA00020E03016A25E96E000E6B21EA6EEECF7B
:1012CA0001F0EECF02F002C071F3726B94D0010EFE
:1012DA00796F7A6B7B6B7C6B7D6B2FDD00C06CF357
:1012EA0001C06DF30F013851000A06E1080E03012F
:1012FA006F6F000E706F0BD003016CC3E9FF6DC3F3
:10130A00EAFFEECF6FF3000E706F000E706F89D098
:10131A00020E6A25E96E000E6B21EA6EEECF01F02D
:10132A0001C06EF301500101C65D03E2060EC36FF0
:10133A009BD0020E0301796F6EC37AF3000E7B6FA6
:10134A007C6B7D6BFADC00C06CF301C06DF3020E9E
:10135A000024E96E000E0120EA6EEECF05F0030EBE
:10136A000024E96E000E0120EA6EEECF03F0000EB3
:10137A00046E03C001F0006A055000246F6F000E6E
:10138A000120706F4ED0030E796F020E6A25E96E46
:10139A00000E6B21EA6EFF0EEE147A6FEECF7BF32E
:1013AA00000E7B17040E6A25E96E000E6B21EA6EA9
:1013BA00EECF7CF3EECF7DF3C0DC00C06CF301C04E
:1013CA006DF3000E011802E1000E001804E1060E8A
:1013DA000101C36F49D06CC3E9FF6DC3EAFFEECFC9
:1013EA006FF3000E0301706F000E706F1AD0060EB5
:1013FA000101C36F39D0000E0301721902E1010E17
:10140A007119D8B464D7000E721902E1020E71196B
:10141A00D8B47ED7000E721902E1030E7119B3E037
:10142A00E6D7060E6A25D96E000E6B21DA6EDECF7C
:10143A0001F0DECF02F07051025C02E16F51015CF3
:10144A000AE2060E6A25E96E000E6B21EA6EEECFFD
:10145A006FF3EECF70F36CC374F36DC375F36FC3A0
:0A146A0076F370C377F323DE12005F
:101474003EC343F32FDE15C148F3430E496F030EF9
:101484004A6F010E4B6F000E4C6F010E4D6F35DE2F
:1014940015C148F341C349F342C34AF33FC34BF375
:0C14A40040C34CF303014D6B1DDD120032
:0E14B000010E4C6E6AC3ADF16BC3AEF11200BB
:1014BE0040C346F341C347F33EC344F33FC345F332
:1014CE0042C300F043C301F0010E0301425F000E60
:1014DE00435B005001100FE046C3E9FF47C3EAFF2C
:1014EE0044C3E1FF45C3E2FFEECFE6FF444B452B7D
:1014FE00464B472BE5D73EC300F03FC301F0120029
:10150E00FA0E0101B96F010EBA6F000EBB6F000E1D
:10151E00BC6FEE0EB16F040EB26F000EB36F000E05
:10152E00B46F8C0EB56F050EB66F000EB76F000E52
:10153E00B86F160E0201D86F090ED96F520EDA6F00
:10154E00030EDB6FE20EDC6F050EDD6F520EDE6FEB
:10155E00030EDF6F880ED46F050ED56F000ED66F9B
:10156E00000ED76F959295908C928C909582958067
:0A157E00739E739C380E726E12000B
:10158800220E0C6E086A096A0A6A0B6A0C06D8B43D
:101598001FD0D8900B320A32093208320332023295
:1015A80001320032D8A0F2D70C06D8B409D00450C2
:1015B80008260550092206500A2207500B22EAD7AE
:1015C800045008260550092206500A2207500B220B
:0215D8001200FF
:1015DA000B6A0A6A096A086A0E6A033408360450F2
:1015EA00085E0550D8A0053C095E0650D8A0063C06
:1015FA000A5E0750D8A0073C0B5EE86AD8A0010E25
:10160A000E5E0336070E0C6E0334083609360A36A8
:10161A000B360E36045003A012D0085E0550D8A02F
:10162A00053C095E0650D8A0063C0A5E0750D8A0C1
:10163A00073C0B5EE86AD8A0010E0E5E11D00826A0
:10164A000550D8B0053C09260650D8B0063C0A26F3
:10165A000750D8B0073C0B26E86AD8B0010E0E2610
:10166A0003360C2ED1D70234083609360A360B3621
:10167A000E36045003A012D0085E0550D8A0053CCF
:10168A00095E0650D8A0063C0A5E0750D8A0073C5F
:10169A000B5EE86AD8A0010E0E5E11D0082605502E
:1016AA00D8B0053C09260650D8B0063C0A26075091
:1016BA00D8B0073C0B26E86AD8B0010E0E260236CF
:1016CA00070E0C6E0234083609360A360B360E3609
:1016DA00045002A012D0085E0550D8A0053C095E4D
:1016EA000650D8A0063C0A5E0750D8A0073C0B5EFD
:1016FA00E86AD8A0010E0E5E11D008260550D8B0AF
:10170A00053C09260650D8B0063C0A260750D8B030
:10171A00073C0B26E86AD8B0010E0E2602360C2EBC
:10172A00D1D70134083609360A360B360E3604503C
:10173A0002A012D0085E0550D8A0053C095E0650EA
:10174A00D8A0063C0A5E0750D8A0073C0B5EE86AA0
:10175A00D8A0010E0E5E11D008260550D8B0053C5F
:10176A0009260650D8B0063C0A260750D8B0073CCE
:10177A000B26E86AD8B0010E0E260136070E0C6E4B
:10178A000134083609360A360B360E36045001A0E3
:10179A0012D0085E0550D8A0053C095E0650D8A0B4
:1017AA00063C0A5E0750D8A0073C0B5EE86AD8A040
:1017BA00010E0E5E11D008260550D8B0053C092648
:1017CA000650D8B0063C0A260750D8B0073C0B266C
:1017DA00E86AD8B0010E0E2601360C2ED1D7003495
:1017EA00083609360A360B360E36045001A012D0D6
:1017FA00085E0550D8A0053C095E0650D8A0063CF4
:10180A000A5E0750D8A0073C0B5EE86AD8A0010E12
:10181A000E5E11D008260550D8B0053C09260650A0
:10182A00D8B0063C0A260750D8B0073C0B26E86A0F
:10183A00D8B0010E0E260036070E0C6E003408369C
:10184A0009360A360B360E36045000A012D0085E4E
:10185A000550D8A0053C095E0650D8A0063C0A5E91
:10186A000750D8A0073C0B5EE86AD8A0010E0E5EAE
:10187A0011D008260550D8B0053C09260650D8B024
:10188A00063C0A260750D8B0073C0B26E86AD8B0AF
:10189A00010E0E2600360C2ED1D700B00ED0045001
:1018AA0008260550D8B0053C09260650D8B0063C93
:0C18BA000A260750D8B0073C0B2612008D
:1018C600010E03016A25E96E000E6B21EA6EEE50E9
:1018D600030A03E1010E716F01D0716B6AC3E9FF60
:1018E6006BC3EAFFEECF00F01F0E0014726F25D116
:1018F600020E6A25E96E000E6B21EA6EEECF01F04C
:10190600EECF02F0000E021802E1010E01181AE1F4
:10191600040E0101C36F0301715307E0020E0201B9
:10192600D111006E00C0D1F20CD00201FD0ED1150E
:10193600006E00C0D1F26AC374F36BC375F3D8ECC2
:1019460007F01DD00301715317E0020E6A25E96EF8
:10195600000E6B21EA6EEECF01F0EECF02F0000E24
:10196600021802E1020E011806E16AC374F36BC3A2
:1019760075F3D8EC07F003D0060E0101C36FEAD069
:101986006AC374F36BC375F3D8EC07F0E3D0020EA9
:1019960003016A25E96E000E6B21EA6EEECF01F0B7
:1019A600EECF02F0000E021802E1000E0118D8A4D4
:1019B600BDD0040E6A25E96E000E6B21EA6E0F0E8D
:1019C600EE14006EEECF01F0000E0116005001106D
:1019D600D8B4A8D0040E6A25056E000E6B21066EDB
:1019E60005C0E9FF06C0EAFF0F0EEE14016E01C046
:1019F6006CF301C003F0000E046E03360436039048
:101A060003360436039003C000F004C001F000362C
:101A160000900136003600900136000E00246D6FEE
:101A26000D0E01206E6F05C0E9FF06C0EAFFEECF7E
:101A360002F0EECF03F002AE04D0080E6D27000EC2
:101A46006E23715322E06DC3E9FF6EC3EAFF6DC3D7
:101A5600E1FF6EC3E2FF840EEE12040E6D25016EE9
:101A6600000E6E21026E01C06DF302C06EF301C05E
:101A7600E9FF02C0EAFF840EEE10006E01C0E1FF2E
:101A860002C0E2FF00C0E6FF4DD06DC3E9FF6EC3A2
:101A9600EAFF6DC3E1FF6EC3E2FF7B0EEE16040E96
:101AA6006D25016E000E6E21026E01C06DF302C03F
:101AB6006EF301C0E9FF02C0EAFF7B0EEE14006E72
:101AC60001C0E1FF02C0E2FF00C0E6FF040E6A2586
:101AD600E96E000E6B21EA6EEECF02F0EECF03F058
:101AE60002AE05D04D0E6F6F020E706F04D0C90E98
:101AF6006F6F010E706F0B0E006E000E016E6CC3E1
:101B060004F0000E056EA5EC05F06F51002670512D
:101B1600012200C06FF301C070F300C0E1FF01C0F5
:101B2600E2FFE66A040E0101C36F06D06AC374F3CE
:101B36006BC375F3D8EC07F00DD003017251000AA0
:101B4600D8B4D6D67251010AD8B41AD77251020A3D
:061B5600D8B41DD71200F7
:101B5C00020E03016A25E96E000E6B21EA6EEECFD0
:101B6C0001F001C06CF301500101C65D03E2060EE9
:101B7C00C36F32D0C151080A14E103016C51000A41
:101B8C0004E1040E0101C36F09D00101100EC16FF5
:101B9C00040EC36F6CC374F3D6EC08F06CC3C7F1BE
:101BAC001BD00101C151100A14E103016C51000A50
:101BBC0006E1080E0101C16F040EC36F07D00101CD
:101BCC00040EC36F6CC374F3D6EC08F06CC3C7F18E
:0A1BDC0003D0060E0101C36F1200D2
:101BE6000134083609360450085E0550D8A0053C75
:101BF600095E003601360F0E0C6E013408360936C2
:101C0600045000A006D0085E0550D8A0053C095E29
:101C160005D008260550D8B0053C09260036013601
:101C26000C2EEBD700B006D0045008260550D8B0CD
:081C3600053C09260000120024
:101C3E006AC3E9FF6BC3EAFFEECF00F01F0E00147C
:101C4E000301736F7ED0D1C271F3000E726F85D017
:101C5E00716B726B82D0040E6A25056E000E6B21BD
:101C6E00066E05C0E9FF06C0EAFF0F0EEE14016E08
:101C7E0001C06CF301C003F0000E046E033604368F
:101C8E00039003360436039003C000F004C001F045
:101C9E00003600900136003600900136000E00240A
:101CAE006D6F0D0E01206E6F05C0E9FF06C0EAFFD5
:101CBE00EECF02F0EECF03F002AE09D04D0E6F6FF5
:101CCE00020E706F080E6D27000E6E2304D0C90E23
:101CDE006F6F010E706F0B0E006E000E016E6CC3F7
:101CEE0004F0000E056EA5EC05F06F510026705144
:101CFE00012200C06FF301C070F300C0E9FF01C004
:101D0E00EAFFEECF03F003C000F0000E016E0036C6
:101D1E00009001360036009001366D5100266E514E
:101D2E00012200C06DF301C06EF300C0E9FF01C0D7
:101D3E00EAFFEECF00F0716B00B4712B000E726FE4
:101D4E000CD07351000AD8B47ED77351010AD8B49F
:101D5E007FD77351020AD8B47ED7710E746F030EFB
:101D6E00756F020E766F000E776F5CEC08F0120046
:101D7E00010E03016625686F000E6721696F68D03A
:101D8E0066C36AF367C36BF353DFB0D066C36AF3FF
:101D9E0067C36BF391DDAAD0020E03016625006EB8
:101DAE00000E6721016E00C0E9FF01C0EAFFEECF11
:101DBE00C8F100C0E9FF01C0EAFFEECF02F0EECF9E
:101DCE0003F0000E031802E1000E021804E0080EE4
:101DDE000101C16F03D00101040EC16F040EC36F68
:101DEE0085D066C3E9FF67C3EAFFEECF00F01F0E92
:101DFE000014016E0150000A07E166C36AF367C35F
:101E0E006BF35DEC09F006D066C374F367C375F32C
:101E1E00D8EC07F06BD0C70E0301746F010E756F0F
:101E2E00010E766F000E776F5CEC08F05FD066C324
:101E3E006AF367C36BF38BDE59D066C374F367C363
:101E4E0075F3D8EC07F052D0060E0101C36F4ED0D9
:101E5E0068C3E9FF69C3EAFFEE50000A91E068C368
:101E6E00E9FF69C3EAFFEE50010A90E068C3E9FF9B
:101E7E0069C3EAFFEE50030A89E068C3E9FF69C34C
:101E8E00EAFFEE50050A88E068C3E9FF69C3EAFF7E
:101E9E00EE50060AA6E068C3E9FF69C3EAFFEE50FA
:101EAE00080AB9E068C3E9FF69C3EAFFEE50090A00
:101EBE00BEE068C3E9FF69C3EAFFEE50070ABDE062
:101ECE0068C3E9FF69C3EAFFEE500C0AB6E068C3C7
:101EDE00E9FF69C3EAFFEE500A0AAFE068C3E9FF03
:0E1EEE0069C3EAFFEE500B0AA8E0AED712005F
:101EFC0016D002014E6B4F6B506B516B526B536B88
:101F0C000201010E4D6F800E0301836F880E846FEA
:101F1C000AEC01F01AD019D0CDEC05F016D0000E59
:101F2C00000A03E1040E0101C319E3E0000E000AEC
:101F3C0003E10101020EC319E3E0000E000A03E104
:0C1F4C000101030EC319E7E0E7D7120003
:101F580003016651000A08E10001CF51010A03E1BB
:101F680003EC00F0CF6B0AD003016651030A06E1C7
:0E1F780067C36AF368C36BF358EC0AF01200FB
:021F8600120047
:101F88000201FD6BFE6B000EFE5D02E10A0EFD5DB7
:101F98000BE2FD51FB25E16EFE51FC21E26E200EA5
:101FA800E66EFD4BFE2BEFD7FD51FB25E16EFE5192
:101FB800FC21E26EE66A010EFD5F000EFE5BFD513C
:101FC800FB25FF6FFE51FC210301006F0A0E046E12
:101FD800000E056E066E076EF7C200F0F8C201F03B
:101FE800F9C202F0FAC203F0EDEC0AF008C000F002
:101FF80009C001F00AC002F00BC003F0300E002641
:10200800FFC2E1FF00C3E2FF00C0E6FF0A0E046E54
:10201800000E056E066E076EF7C200F0F8C201F0FA
:10202800F9C202F0FAC203F0EDEC0AF000C0F7F2D0
:1020380001C0F8F202C0F9F203C0FAF2000E046E11
:10204800031808E10450021805E10450011802E1E0
:102058000050000A01E106D0010E0201FD5F000EEA
:06206800FE5BADD7120083
:10206E000450000A08E10550000A05E1FF0E006E5B
:10207E007F0E016E57D00D6A096A086A0150001072
:10208E00D8B4000C015005180A6E0ABE0D1E0B6A5C
:10209E0005AE05D0041E051E042AD8B4052A01AECD
:1020AE0005D0001E011E002AD8B4012A01500510C9
:1020BE000A6E0ABE10D090DD0BB020D00DAE000C13
:1020CE00001E011E002AD8B4012A081E091E082A65
:1020DE00D8B4092A000C05AE0DD001BE07D00150B0
:1020EE00096E0050086E016A006AE8D7016A006A3C
:1020FE00002A000C011E001E0B2ADDD7082AD8B4B8
:10210E00092A0450085CD8A4D9D70550095CD8A474
:10211E00D5D7096A086A002AD8B4012A01AECED7EB
:06212E000000FF0C12008E
:102134000B0E006E000E016EF7C204F0000E056E69
:10214400A5EC05F04D0E0026020E012200C0FCF2A3
:1021540001C0FDF2010E0024E16E000E0120E26ECA
:10216400F8C2E6FFF9C2E6FF030E0201FC25E16EA8
:10217400000EFD21E26EFAC2E6FFFBC2E6FF050E89
:10218400FC25E16E000EFD21E26EFAC2E6FFFBC201
:10219400E6FFF7C200F0000E016E00360136009033
:1021A400003601360090020E0026000E01220A0EAF
:1021B400FC25D96E000EFD21DA6EDE500024036E7C
:1021C400000E0120046E03C000F004C001F00036CC
:1021D40000900136003600900136000E00260D0EE8
:1021E400012200C0FEF201C0FFF2020E0024E16EE3
:1021F400000E0120E26EF8C2E6FFF9C2E6FF010E0E
:10220400FE25E16E000EFF21E26EFAC2E6FFFBC27C
:1022140000F0016A030E0014036EFCC2E9FFFDC264
:10222400EAFFEECF02F0060E016E02C000F001508C
:1022340004E000360090FF0FFBD703500012FEC2EB
:0E224400E1FFFFC2E2FF880E0010E66E1200FE
:10225200800E0201F819006E800E005C02E1000E91
:10226200F75D08E2F7510008F96FF8C2FAF2000EC2
:10227200FA5704D0F7C2F9F2F8C2FAF2F9C200F042
:06228200FAC201F0120097
:1022880003013E6B010E3F6F000E406FF70E416F6A
:0E229800020E426F3AEC0AF0F7C200F012009C
:1022A600F7C2FAF2F8C2FBF2F9C2FCF20DD0780ED0
:1022B600746E87EC0AF045D01E0E746E87EC0AF039
:1022C60040D0040E006E3FD0FAC2F6FFFBC2F7FF05
:1022D600FCC2F8FF0900F5CF01F00900F5CF02F0C6
:1022E6000900F5CF03F00900F5CF04F00450000A09
:1022F60008E10350010A05E10250860A02E1015095
:10230600A00AD5E0FAC2F6FFFBC2F7FFFCC2F8FF4F
:102316000900F5CF01F00900F5CF02F00900F5CF6D
:1023260003F00900F5CF04F00450000A08E1035059
:10233600060A05E102501A0A02E10150800ABCE0D1
:08234600C0D7000E006E12006A
:10234E00F7C2FAF2F8C2FBF2F9C2FCF2FAC200F0DE
:10235E00FBC201F0FCC202F000C0F6FF01C0F7FFA5
:10236E0002C0F8FF0900F5CF0DF10900F5CF0EF10F
:10237E000900F5CF0FF10900F5CF10F1FAC200F008
:10238E00FBC201F0FCC202F0040E0024F66E000E39
:10239E000120F76E000E0220F86E0900F5CF11F144
:1023AE000900F5CF12F10900F5CF13F10900F5CFB1
:1023BE0014F1FAC200F0FBC201F0FCC202F0080EEA
:1023CE000024F66E000E0120F76E000E0220F86E4D
:1023DE000900F5CF09F10900F5CF0AF10900F5CF93
:1023EE000BF10900F5CF0CF1FAC200F0FBC201F0BF
:1023FE00FCC202F00C0E0024F66E000E0120F76EE9
:10240E00000E0220F86E0900F5CF01F10900F5CF9C
:10241E0002F10900F5CF03F10900F5CF04F1FAC27C
:10242E0000F0FBC201F0FCC202F0100E0024F66EAA
:10243E00000E0120F76E000E0220F86E0900F5CF97
:10244E0005F10900F5CF06F10900F5CF07F10900F6
:06245E00F5CF08F11200A9
:10246400F7C2FAF2F8C2FBF2F9C2FCF2FAC200F0C7
:10247400FBC201F0FCC202F0300E0026000E012265
:10248400022200C0FDF201C0FEF202C0FFF2070EFC
:10249400006E000E016E026E036E040E046E000EDA
:1024A400056E066E076EC4EC0AF00201FD510024AD
:1024B400F66EFE510120F76EFF510220F86E0900FE
:1024C400F5CF16F10900F5CF17F10900F5CF18F192
:0824D4000900F5CF19F1120017
:1024DC00260E0201D26F0F0ED36F01019F6BA06B02
:1024EC00000EA05D02E10C0E9F5D0CE2D2C2E1FF7A
:1024FC00D3C2E2FFE66A0201D24BD32B01019F4B00
:06250C00A02BEED7120027
:10251200000E0201D26F0D0ED36F01019F6BA06BF3
:10252200000EA05D02E1C00E9F5D0CE2D2C2E1FF8F
:10253200D3C2E2FFE66A0201D24BD32B01019F4BC9
:10254200A02BEED7C10E0201D26F010ED36F010193
:102552009F6BA06B010EA05D02E1110E9F5D0CE26C
:10256200D2C2E1FFD3C2E2FFE66A0201D24BD32B11
:0A25720001019F4BA02BEED71200D1
:10257C0057D00201F8B102D0929401D0928476D057
:10258C000201F8B102D0939401D093846FD0020170
:10259C00F8B102D0939601D0938668D00201F8B1BD
:1025AC0002D0939801D0938861D00201F8B102D087
:1025BC00939A01D0938A5AD00201F8B102D0949E1A
:1025CC0001D0948E53D00201F8B102D0949C01D06A
:1025DC00948C4CD00201F8B102D0959801D095881A
:1025EC0045D00201F8B102D0959A01D0958A3ED01F
:1025FC000201F8B102D0959C01D0958C37D0020124
:10260C00F8B102D0959001D0958030D00201F8B18C
:10261C0002D0959201D0958229D0010E006E28D05F
:10262C000201F751000AA5E0F751010AA9E0F751A0
:10263C00020AADE0F751030AB1E0F751040AB5E024
:10264C00F751050AB9E0F751060ABDE0F751070A40
:10265C00C1E0F751080AC5E0F751090AC9E0F75182
:10266C000A0ACDE0F7510B0AD1E0D7D7000E006E65
:02267C0012004A
:10267E00FAC23CF3FBC23DF3F7C2FCF2FD0E0301BE
:10268E003E6F020E3F6FFAC240F3FBC241F3F8C237
:10269E0042F3F9C243F35FEC0AF06CEC08F015C19B
:1026AE0048F3FC0E496F020E4A6F010E0201F82527
:1026BE0003014B6F000E0201F92103014C6F4D6BAC
:0626CE007FEC08F0120091
:1026D400E9C204F0EAC205F004C0E9FF05C0EAFF5C
:1026E400EE5203E0044A052AF7D704C002F005C0FD
:1026F40003F0044A052AEBC200F0ECC201F0020127
:10270400EB4BEC2B00C0E9FF01C0EAFF02C0E1FF84
:1027140003C0E2FFEECFE6FF02C0E9FF03C0EAFF19
:10272400EE5201E0E2D7E9C200F0EAC201F0120081
:10273400E9C202F0EAC203F002C000F003C001F0F3
:10274400024A032A00C0E9FF01C0EAFFEE5201E099
:10275400F3D70201E951025C006EEA510358016E9D
:0A276400010E005E000E015A120083
:10276E00160E03013E6F010E3F6F000E406FEB0E13
:10277E00416F020E426F3AEC0AF0170E03013E6FE4
:10278E00010E3F6F000E406FEC0E416F020E426F56
:10279E003AEC0AF0E9C200F0EAC201F0010E0024A0
:1027AE00E16E000E0120E26EEBC2E6FFE9C200F020
:1027BE00EAC201F000C0E1FF01C0E2FFECC2E6FF99
:0227CE001200F7
:1027D000EFC215F1ECC2F7F2EDC2F8F2EEC2F9F277
:1027E000B6DDE9C2F7F2EAC2F8F2EBC2F9F23ADE7C
:0227F0001200D5
:1027F2000201E96BEA6B060E03013E6F010E3F6FA9
:10280200000E406FEA0E416F020E426F3AEC0AF080
:102812000201EA8D060EF76F010EF86F000EF96FD6
:10282200EA0EFA6F020EFB6F29DF060E03013E6FFE
:10283200010E3F6F000E406FEA0E416F020E426FB3
:102842003AEC0AF00201EABD01D001D0EED7060E41
:1028520003013E6F010E3F6F000E406FE90E416FA4
:10286200020E426F3AEC0AF0F80E0201E917E98310
:10287200030EE913E987060EF76F010EF86F000EDB
:10288200F96FE90EFA6F020EFB6FF8DE070E030115
:102892003E6F010E3F6F000E406FE90E416F020E58
:1028A200426F3AEC0AF00201E98D000EE913030EC1
:1028B200E913070EF76F010EF86F000EF96FE90EBC
:1028C200FA6F020EFB6FDADE0201E96B0F0EE913FB
:1028D200700EE913090EF76F010EF86F000EF96F13
:1028E200E90EFA6F020EFB6FC9DE010E03013E6FA5
:1028F200010E3F6F000E406FE90E416F020E426FF4
:102902003AEC0AF00201E98BE989E98D010EF76FD1
:10291200010EF86F000EF96FE90EFA6F020EFB6FEF
:04292200ADDE120014
:102926000B0E006E000E016EE9C204F0000E056E7D
:10293600A5EC05F0C90E0026010E012200C0ECF23E
:1029460001C0EDF2010E0024E16E000E0120E26EE0
:10295600EAC2E6FFEBC2E6FF030E0201EC25E16EDA
:10296600000EED21E26E080EEC25E96E000EED215B
:10297600EA6EEECFE6FFEECFE6FF050EEC25E16E42
:10298600000EED21E26E080EEC25E96E000EED213B
:10299600EA6EEECFE6FFEECFE6FFE9C200F0000EEC
:1029A600016E0036013600900036013600900A0EA0
:1029B600EC25D96E000EED21DA6EDE500024036E92
:1029C600000E0120046E03C000F004C001F00036C2
:1029D60000900136003600900136000E00260D0EDE
:1029E600012200C0EEF201C0EFF2020E0024E16EF9
:1029F600000E0120E26E010EEC25E96E000EED21BF
:102A0600EA6EEECFE6FFEECFE6FF010EEE25E16EB3
:102A1600000EEF21E26E080EEC25E96E000EED21A8
:102A2600EA6EEECFE6FF080EEC25E96E000EED210C
:102A3600EA6EEECF03F0EECF04F004C000F0016AB8
:102A4600030E0014036EECC2E9FFEDC2EAFFEECFFF
:102A560002F0060E016E02C000F0015004E00036DE
:102A66000090FF0FFBD703500012EEC2E1FFEFC24A
:0A2A7600E2FF880E0010E66E120069
:102A800016C100F017C101F0F1EC00F00050000A8F
:102A90000BE144EC11F0200E0014016E0150000A0D
:102AA00003E0010E006E01D0006A00C0E9F2E9C245
:042AB00000F0120020
:102AB400020E0201F76FE9C2F8F2EAC2F9F2EBC2C0
:0C2AC400FAF2ECC2FBF29AEC10F01200E7
:102AD0000CD0EAC2F7F2EBC2F8F2ECC2F9F253EC16
:102AE00011F008D0010E006E05D00201E951000A74
:062AF000F0E0F8D712002F
:102AF60009D0EAC2F7F2EBC2F8F23DDD08D0010ECA
:102B0600006E05D00201E951000AF3E0F8D7120081
:102B1600E9C2E0F2EAC2E1F2EBC2E2F2ECC2E3F2AF
:0E2B2600EDC2E4F2EEC2E5F2EFC2E6F21200FA
:102B3400AFC1E9FFB0C1EAFFEECF00F03C0E0014D4
:102B4400016E01C006F00632069E0632069E06C0DD
:102B540062F3010E0101AF25E96E000EB021EA6EA9
:102B6400EECF05F0AFC1E9FFB0C1EAFFEECF00F050
:102B7400000E016E030E0014036E01C004F0000E7B
:102B8400041603C001F0006A005005100301636FCE
:102B9400000E0110646F06500D0A44E17F0E0D0112
:102BA4000815006E00C008FD7F0E0C15006E00C0F5
:102BB4000CFDABC1E9FFACC1EAFFEECF00F0ABC145
:102BC400E1FFACC1E2FF7F0E0014E66EA10E03012B
:102BD4008C6F010E8D6FC00E8E6F0D0E8F6F080EF1
:102BE400906FB4EC00F000C060F301C061F300C06A
:102BF400E9FF01C0EAFF600EEE14016E0150000A05
:102C040007E160C366F361C367F3BFEC0EF006D05F
:102C140060C374F361C375F3D8EC07F065987EEC78
:102C24000FF0B1D103016251010AD8A4C8D0000E3B
:102C3400000A03E1050E0101C31905E10101C36B9B
:102C4400DDEC03F0BBD0000E000A03E1030E01012A
:102C5400C319D8A4B3D00101010EA925E96E000E51
:102C6400AA21EA6EEECF8CF3EECF8DF3C00E0301F2
:102C74008E6F0D0E8F6F63C390F3B4EC00F0050EEE
:102C84000101A925026E000EAA21036E02C0E9FF0C
:102C940003C0EAFF03016351EE5C006E6451EE5819
:102CA400016E02C0E1FF03C0E2FF00C0E6FF01C005
:102CB400E6FF010E0101A925026E000EAA21036E92
:102CC40002C0E9FF03C0EAFF03016351EE24006E72
:102CD4006451EE20016E02C0E1FF03C0E2FF00C0B8
:102CE400E6FF01C0E6FF030E0101A925026E000EF6
:102CF400AA21036E02C0E9FF03C0EAFF0301635186
:102D0400EE24006E6451EE20016E02C0E1FF03C0A8
:102D1400E2FF00C0E6FF01C0E6FF000E645D04E1CF
:102D24000101C5510301635D2EE24D0E5E6F020E7B
:102D34005F6F010E5E25E16E000E5F21E26EC00E34
:102D4400E66E0D0EE66E030E5E25E16E000E5F214B
:102D5400E26EE66AE66A050E5E25E16E000E5F210C
:102D6400E26EE66AE66A5EC3E1FF5FC3E2FF010E5C
:102D7400E66E800E836F880E846F0AEC01F0040EF9
:102D84000101C36F13D0A9C1E9FFAAC1EAFFEECFC5
:102D940000F0A9C1E1FFAAC1E2FF010E0018E66E2E
:102DA4000301836B880E846F0AEC01F00301666BE8
:102DB40063C367F364C368F3ACEC0FF0E4D00301BE
:102DC400656B050E0101A925E96E000EAA21EA6EC4
:102DD400EECF01F0EECF02F0000E021802E1C55171
:102DE40001180BE1000E006EA851005C02E1A7512E
:102DF400C55D03E2010E0301656F050E0101A925FE
:102E0400026E000EAA21036E02C0E9FF03C0EAFFAE
:102E140003016351EE5C006E6451EE58016E02C012
:102E2400E1FF03C0E2FF00C0E6FF01C0E6FF010EC0
:102E34000101A925026E000EAA21036E02C0E9FF5A
:102E440003C0EAFF03016351EE24006E6451EE20D7
:102E5400016E02C0E1FF03C0E2FF00C0E6FF01C053
:102E6400E6FF050E0101A925E96E000EAA21EA6E0E
:102E7400EECF01F0EECF02F0000E006E0250005CC7
:102E840002E10150000816E3050EA925E96E000EC3
:102E9400AA21EA6EEECF01F0EECF02F0000E021886
:102EA40002E1000E011805E103016551010A01E187
:102EB40001D015D00301A9C1E9FFAAC1EAFFEECFF1
:102EC40000F0A9C1E1FFAAC1E2FF010E0018E66EFD
:102ED400800E836F880E846F0AEC01F050D00301DA
:102EE400800E836F840E846F0AEC01F0000E000ADA
:102EF40003E1020E0101C31932E10101050EC36FA2
:102F0400C90E03015E6F010E5F6F010E5E25E16E57
:102F1400000E5F21E26EC00EE66E0D0EE66E030E2D
:102F24005E25E16E000E5F21E26E080EE66E000E75
:102F3400E66E050E5E25E16E000E5F21E26E080E60
:102F4400E66E000EE66E5EC3E1FF5FC3E2FF010EB4
:102F5400E66E836B880E846F0AEC01F010D0000ECD
:102F6400000A03E1040E0101C31909E10101C15181
:102F7400080A02E1C8C138FFC36BDDEC03F00301AA
:082F8400666BC3EC0FF01200B4
:102F8C000201F16BF26BE9C2F3F2EAC2F4F2EBC2AA
:102F9C00F5F2ECC2F6F2800EEC19006E800E005CBD
:102FAC0008E1000EEB5D05E1000EEA5D02E1000EAA
:102FBC00E95D10E2010EF16F000EF26FF36BF46B32
:102FCC00F56BF66BE951F35FEA51F45BEB51F55B92
:102FDC00EC51F65BF3C2F7F2F4C2F8F2F5C2F9F277
:102FEC00F6C2FAF2EDC2FBF2EEC2FCF2C4EC0FF048
:102FFC000B0E0201EF6F000EF06F000E006EF05121
:10300C00005C02E1EF51000819E2EF51ED25E16E91
:10301C00F051EE21E26E010EEF5D006E000EF059E4
:10302C00016E0050ED25E96E0150EE21EA6EEECFF7
:10303C00E6FF010EEF5F000EF05BDFD7EDC2E1FFA4
:10304C00EEC2E2FF200EE66EF151F2111AE0EF6BC8
:10305C00F06BEF51ED25E96EF051EE21EA6EEE507A
:10306C00200A03E1EF4BF02BF4D7010EEF5F000EBB
:10307C00F05BEF51ED25E16EF051EE21E26E2D0E7D
:04308C00E66E1200DA
:103090000F01376B636A366B626A6EEC12F0160EC4
:1030A0000F01396F386B89EC12F09F0E0F01376FEB
:1030B0007B0E366F658C659C160E266F080E656E4E
:0830C0000101C16BC36B12009A
:1030C8000201F26BF36BF46B020E03013E6F010E0B
:1030D8003F6F000E406FF30E416F020E426F3AECE5
:1030E8000AF0040E03013E6F010E3F6F000E406FA1
:1030F800F40E416F020E426F3AEC0AF00201F351EE
:10310800100FF76FF86B000EF823F451F75F000EFD
:10311800F85B29EC11F0100E046E000E056E37EC0A
:1031280010F008C000F009C001F000C0F2F2010E72
:103138000201F25D48E3ED6BF251ED5D44E2050EEC
:1031480003013E6F040E3F6F000E406FEE0E416F9D
:10315800020E426F3AEC0AF0E9C200F0EAC201F04E
:1031680000C0E1FF01C0E2FFEFC2E6FFE9C200F0E4
:10317800EAC201F0010E0024E16E000E0120E26EA9
:10318800EEC2E6FF020E0201E927000EEA23EBC2B7
:1031980000F0ECC201F000C0E1FF01C0E2FFF1C2A3
:1031A800E6FFEBC200F0ECC201F0010E0024E16E74
:1031B800000E0120E26EF0C2E6FF020EEB27000EC1
:0C31C800EC23ED2BB9D7F2C200F012008E
:1031D4000900F5CFE6FF0006FBE10106F9E1120064
:1031E4004DDC0052D8B49ED04E0E0201E96F000EA1
:1031F400EA6F8E0EEB6F000EEC6F64DF00C000F11F
:10320400E80EE96F000EEA6FB7EC13F0010E01014E
:10321400005DD8A087D0326A336A000E335C03E1C4
:1032240001010051325CD8B07DD032C000F033C00F
:1032340001F00036009001360036009001364E0E43
:103244000024E96E000E0120EA6EEECFE9F2EECF23
:10325400EAF2EECFEBF2EECFECF2D40E0201ED6F18
:10326400000EEE6F91DED40EE96F000EEA6F2D0EA4
:10327400EB6F000EEC6F6AEC13F0D40EE96F000EE6
:10328400EA6F9AEC13F000C0EBF201C0ECF2D40E3A
:10329400E96F000EEA6F0CDCC70E0D6E0D2EFED723
:1032A4000000000032C000F033C001F0003600908E
:1032B40001360036009001368E0E0024E96E000EB1
:1032C4000120EA6EEECFE9F2EECFEAF2EECFEBF2B6
:1032D400EECFECF2D40EED6F000EEE6F55DED40E91
:1032E400E96F000EEA6F300EEB6F000EEC6F6AECC4
:1032F40013F0D40EE96F000EEA6F9AEC13F000C0DD
:10330400EBF201C0ECF2D40EE96F000EEA6F5AEC56
:1033140015F0C70E0D6E0D2EFED700000000324AC8
:06332400332A7BD71200E2
:10332A00800E0201E96F250EEA6F000EEB6FEC6F5B
:0E333A00ED6BEE6B080EEF6F8BEC15F01200D2
:10334800030E0201E96FE7C2EAF2E8C2EBF293EC7E
:0433580014F012005B
:10335C00B70E0201E96F370EEA6F000EEB6F8B0EA2
:10336C00EC6F380EED6F000EEE6F570EEF6FE8EC52
:08337C0013F0F9EC13F012004C
:103384000101C151000A07E1080E656E010EC16F0B
:10339400626A020EC16F62500F013615016E01A4FC
:1033A40015D0C2C1C1F1080E0301796F6BEC07F0AF
:1033B4000F013695FF0E0301596F62A407D059C35C
:1033C40000F05907005202E06294F7D762500F01EF
:1033D4003615016E01A043D059DE010E0301796F49
:1033E4007A6B7B6B7C6B7D6BA2EC06F0070E002482
:1033F400E96E000E0120EA6EEECFC5F1110E002435
:10340400E96E000E0120EA6EEECFC6F1040E010152
:10341400C16FC5C1D1F1000ED26FC5C155F2000E06
:103424000201566F020E0301796F6BEC07F0C00EB8
:103434000101CA6F0D0ECB6F080ECC6F000ECD6F5D
:10344400080ECE6F000ECF6FC96BCAC102FDCBC18F
:1034540003FD080E0D01016F8C0E006F6290625027
:103464000F013615016E01A80CD062983685C1C1D2
:10347400C2F1200E0101C16F060E0301796F6BECDE
:1034840007F062500F013615016E01AC06D0629C44
:10349400080E0301796F6BEC07F062500F013615CB
:1034A400016E01AA04D026A101D02691629A62502D
:1034B4003615016E01A202D0636A6292040E010104
:1034C400C15D02E2A198CDD003015C6B040E5C5D8A
:1034D400D8B0C6D062500F013615016E01A6BDD01A
:1034E40064CFC4F1C4C100F00032009E0032009EDB
:1034F4000032009E0F0E0014016E01C05DF362964F
:1035040001C003F0000E046E033604360390033644
:103514000436039003C000F004C001F000360090AC
:103524000136003600900136000E00240101AF6F11
:103534000D0E0120B06FC4A509D04D0EA96F020E67
:10354400AA6F080EAF27000EB02304D0C90EA96FCE
:10355400010EAA6F0B0E006E000E016E5DC304F027
:10356400000E056EA5EC05F00050A9270150AA2312
:10357400040EAF25AB6F000EB021AC6FC4A308D00E
:10358400AFC1ABF1B0C1ACF1040EAF27000EB02354
:103594000A0EA925016E000EAA21026E01C0E9FFE0
:1035A40002C0EAFF010EEE18006E01C0E1FF02C086
:1035B400E2FF00C0E6FF03015D51000A03E19AEC5B
:1035C40015F04BD00101C4A512D0A9C1E9FFAAC1CD
:1035D400EAFFEECF00F0A9C1E1FFAAC1E2FF010EAC
:1035E4000018E66E5DC366F3C3EC0FF036D0010E2F
:1035F400AF25E96E000EB021EA6EEECF05F0AFC143
:10360400E9FFB0C1EAFFEECF00F0000E016E030E39
:103614000014036E01C004F0000E041603C001F090
:10362400006A0050051003015A6F000E01105B6F11
:10363400A9C1E9FFAAC1EAFFEECF00F0A9C1E1FFE9
:10364400AAC1E2FF010E0018E66E5DC366F35AC319
:1036540067F35BC368F3ACEC0FF003015C2B36D764
:04366400A198120017
:103668000201E96B070EEA6F010EEB6F7BEC15F0B8
:103678000201E96BD60EEA6F380EEB6F000EEC6FA5
:1036880068EC15F0070E0B6E170E0C6E6A0E0D6EB9
:103698000D2EFED70C2EFCD70B2EFAD700001200E9
:1036A8006FEC1CF00F0EC1120F01259F3ADEECDC07
:1036B800D08EA288A088F28ED3DF4CDE4D5207E070
:1036C800ECC0E7F2000E0201E86F3ADE4D6A86DDD3
:1036D8004C50010A17E14C6AECC0E7F2000E0201F7
:1036E800E86F2EDE340EE96F000EEA6F9AEC13F0E5
:1036F80000C0EBF201C0ECF2340EE96F000EEA6F85
:083708005AEC15F0DBD7FFD7E6
:1038DE0010EE2DF0A70E006E010E016E100EF66E9C
:0E38EE00370EF76E000EF86EEAEC18F01200BE
:03371000202C006A
:023713000A0D9D
:023715000000B2
:103717004F4B0A00000000000000000000000000FE
:04372700000000009E
:04372B00000000009A
:01372F000099
:013730000098
:103731000000000000000000000000000000000088
:103741000000000000000000000000000000000078
:103751000000000000000000000000000000000068
:103761000000000000000000000000000000000058
:103771000000000000000000000000000000000048
:103781000000000000000000000000000000000038
:103791000000000000000000000000000000000028
:1037A1000000000000000000000000000000000018
:0137B1000017
:0137B2000016
:0437B3000000000012
:1037B700BA015803AC0158034C015803EA005803F7
:1037C700F8005803CE005803DC00580306015803DD
:1037D700300158033E0158031401580322015803CE
:1037E7008C040000E4040000DA04000082040000F6
:1037F70078040000AA040000D004000002090000B9
:10380700A0040000960400007E0500000C090000DB
:1038170009024300020100C032090400000102024C
:1038270001000524001001052401000104240202FF
:103837000524060001070581030800FF09040100AC
:10384700020A000000070503024000000705820284
:033857004000002E
:10385A0043444320496E74657266616365206465FA
:0A386A00736320737472696E6700C7
:1038740043444320436F6E66696720646573632025
:07388400737472696E6700A6
:10388B00EE040000880500008C050000E2055203E1
:04389B0016095203B5
:10389F0012010002020000400000000400010102BA
:0238AF00030113
:1038B1004D696B726F656C656B74726F6E696B616C
:0138C1000006
:0B38C2003078303030303030303400CF
:0938CD005643502044656D6F0064
:0438D600A0860100C7
:0438DA0004030904D6
:020000040001F9
:08FFF800A8F7FDFFFFFBFFFB72
:00000001FF
